{
  "contractName": "landRegistration",
  "abi": [
    {
      "inputs": [],
      "payable": false,
      "stateMutability": "nonpayable",
      "type": "constructor"
    },
    {
      "constant": false,
      "inputs": [
        {
          "internalType": "address",
          "name": "_admin",
          "type": "address"
        },
        {
          "internalType": "string",
          "name": "_province",
          "type": "string"
        }
      ],
      "name": "addAdmin",
      "outputs": [],
      "payable": false,
      "stateMutability": "nonpayable",
      "type": "function"
    },
    {
      "constant": false,
      "inputs": [
        {
          "internalType": "string",
          "name": "_landAddress",
          "type": "string"
        },
        {
          "internalType": "string",
          "name": "_province",
          "type": "string"
        },
        {
          "internalType": "uint256",
          "name": "_surveyNumber",
          "type": "uint256"
        },
        {
          "internalType": "address payable",
          "name": "_OwnerAddress",
          "type": "address"
        },
        {
          "internalType": "uint256",
          "name": "_marketValue",
          "type": "uint256"
        },
        {
          "internalType": "uint256",
          "name": "id",
          "type": "uint256"
        }
      ],
      "name": "Registration",
      "outputs": [
        {
          "internalType": "bool",
          "name": "",
          "type": "bool"
        }
      ],
      "payable": false,
      "stateMutability": "nonpayable",
      "type": "function"
    },
    {
      "constant": true,
      "inputs": [
        {
          "internalType": "uint256",
          "name": "id",
          "type": "uint256"
        }
      ],
      "name": "landInfoForOwner",
      "outputs": [
        {
          "internalType": "string",
          "name": "",
          "type": "string"
        },
        {
          "internalType": "string",
          "name": "",
          "type": "string"
        },
        {
          "internalType": "uint256",
          "name": "",
          "type": "uint256"
        },
        {
          "internalType": "bool",
          "name": "",
          "type": "bool"
        },
        {
          "internalType": "address",
          "name": "",
          "type": "address"
        },
        {
          "internalType": "enum landRegistration.reqStatus",
          "name": "",
          "type": "uint8"
        }
      ],
      "payable": false,
      "stateMutability": "view",
      "type": "function"
    },
    {
      "constant": true,
      "inputs": [
        {
          "internalType": "uint256",
          "name": "id",
          "type": "uint256"
        }
      ],
      "name": "landInfoForBuyer",
      "outputs": [
        {
          "internalType": "address",
          "name": "",
          "type": "address"
        },
        {
          "internalType": "uint256",
          "name": "",
          "type": "uint256"
        },
        {
          "internalType": "bool",
          "name": "",
          "type": "bool"
        },
        {
          "internalType": "address",
          "name": "",
          "type": "address"
        },
        {
          "internalType": "enum landRegistration.reqStatus",
          "name": "",
          "type": "uint8"
        }
      ],
      "payable": false,
      "stateMutability": "view",
      "type": "function"
    },
    {
      "constant": false,
      "inputs": [
        {
          "internalType": "uint256",
          "name": "id",
          "type": "uint256"
        }
      ],
      "name": "requstToLandOwner",
      "outputs": [],
      "payable": false,
      "stateMutability": "nonpayable",
      "type": "function"
    },
    {
      "constant": true,
      "inputs": [],
      "name": "viewAssets",
      "outputs": [
        {
          "internalType": "uint256[]",
          "name": "",
          "type": "uint256[]"
        }
      ],
      "payable": false,
      "stateMutability": "view",
      "type": "function"
    },
    {
      "constant": true,
      "inputs": [
        {
          "internalType": "uint256",
          "name": "property",
          "type": "uint256"
        }
      ],
      "name": "viewRequest",
      "outputs": [
        {
          "internalType": "address",
          "name": "",
          "type": "address"
        }
      ],
      "payable": false,
      "stateMutability": "view",
      "type": "function"
    },
    {
      "constant": false,
      "inputs": [
        {
          "internalType": "uint256",
          "name": "property",
          "type": "uint256"
        },
        {
          "internalType": "enum landRegistration.reqStatus",
          "name": "status",
          "type": "uint8"
        }
      ],
      "name": "processRequest",
      "outputs": [],
      "payable": false,
      "stateMutability": "nonpayable",
      "type": "function"
    },
    {
      "constant": false,
      "inputs": [
        {
          "internalType": "uint256",
          "name": "property",
          "type": "uint256"
        }
      ],
      "name": "makeAvailable",
      "outputs": [],
      "payable": false,
      "stateMutability": "nonpayable",
      "type": "function"
    },
    {
      "constant": false,
      "inputs": [
        {
          "internalType": "uint256",
          "name": "property",
          "type": "uint256"
        }
      ],
      "name": "buyProperty",
      "outputs": [],
      "payable": true,
      "stateMutability": "payable",
      "type": "function"
    },
    {
      "constant": true,
      "inputs": [
        {
          "internalType": "uint256",
          "name": "id",
          "type": "uint256"
        },
        {
          "internalType": "address",
          "name": "user",
          "type": "address"
        }
      ],
      "name": "findId",
      "outputs": [
        {
          "internalType": "uint256",
          "name": "",
          "type": "uint256"
        }
      ],
      "payable": false,
      "stateMutability": "view",
      "type": "function"
    }
  ],
  "bytecode": "0x608060405234801561001057600080fd5b5033600160006101000a81548173ffffffffffffffffffffffffffffffffffffffff021916908373ffffffffffffffffffffffffffffffffffffffff1602179055506118a4806100616000396000f3fe60806040526004361061009c5760003560e01c80639f2cc207116100645780639f2cc207146103a6578063a27664ee14610520578063a48407c11461058f578063baa39e0514610664578063d16856ca1461069f578063fdb10f50146107875761009c565b80630d2d5dca146100a157806326e852501461010d5780636ba09bf7146101885780636c5ed9391461033d5780636fa830a614610378575b600080fd5b3480156100ad57600080fd5b506100b66107cf565b6040518080602001828103825283818151815260200191508051906020019060200280838360005b838110156100f95780820151818401526020810190506100de565b505050509050019250505060405180910390f35b34801561011957600080fd5b506101466004803603602081101561013057600080fd5b8101908080359060200190929190505050610867565b604051808273ffffffffffffffffffffffffffffffffffffffff1673ffffffffffffffffffffffffffffffffffffffff16815260200191505060405180910390f35b34801561019457600080fd5b50610323600480360360c08110156101ab57600080fd5b81019080803590602001906401000000008111156101c857600080fd5b8201836020820111156101da57600080fd5b803590602001918460018302840111640100000000831117156101fc57600080fd5b91908080601f016020809104026020016040519081016040528093929190818152602001838380828437600081840152601f19601f8201169050808301925050505050505091929192908035906020019064010000000081111561025f57600080fd5b82018360208201111561027157600080fd5b8035906020019184600183028401116401000000008311171561029357600080fd5b91908080601f016020809104026020016040519081016040528093929190818152602001838380828437600081840152601f19601f82011690508083019250505050505050919291929080359060200190929190803573ffffffffffffffffffffffffffffffffffffffff16906020019092919080359060200190929190803590602001909291905050506108a6565b604051808215151515815260200191505060405180910390f35b34801561034957600080fd5b506103766004803603602081101561036057600080fd5b8101908080359060200190929190505050610b17565b005b6103a46004803603602081101561038e57600080fd5b8101908080359060200190929190505050610bff565b005b3480156103b257600080fd5b506103df600480360360208110156103c957600080fd5b8101908080359060200190929190505050610ed3565b604051808060200180602001878152602001861515151581526020018573ffffffffffffffffffffffffffffffffffffffff1673ffffffffffffffffffffffffffffffffffffffff16815260200184600381111561043957fe5b60ff168152602001838103835289818151815260200191508051906020019080838360005b8381101561047957808201518184015260208101905061045e565b50505050905090810190601f1680156104a65780820380516001836020036101000a031916815260200191505b50838103825288818151815260200191508051906020019080838360005b838110156104df5780820151818401526020810190506104c4565b50505050905090810190601f16801561050c5780820380516001836020036101000a031916815260200191505b509850505050505050505060405180910390f35b34801561052c57600080fd5b506105796004803603604081101561054357600080fd5b8101908080359060200190929190803573ffffffffffffffffffffffffffffffffffffffff1690602001909291905050506110e5565b6040518082815260200191505060405180910390f35b34801561059b57600080fd5b506105c8600480360360208110156105b257600080fd5b81019080803590602001909291905050506111ba565b604051808673ffffffffffffffffffffffffffffffffffffffff1673ffffffffffffffffffffffffffffffffffffffff168152602001858152602001841515151581526020018373ffffffffffffffffffffffffffffffffffffffff1673ffffffffffffffffffffffffffffffffffffffff16815260200182600381111561064c57fe5b60ff1681526020019550505050505060405180910390f35b34801561067057600080fd5b5061069d6004803603602081101561068757600080fd5b81019080803590602001909291905050506112a0565b005b3480156106ab57600080fd5b50610785600480360360408110156106c257600080fd5b81019080803573ffffffffffffffffffffffffffffffffffffffff169060200190929190803590602001906401000000008111156106ff57600080fd5b82018360208201111561071157600080fd5b8035906020019184600183028401116401000000008311171561073357600080fd5b91908080601f016020809104026020016040519081016040528093929190818152602001838380828437600081840152601f19601f82011690508083019250505050505050919291929050505061133e565b005b34801561079357600080fd5b506107cd600480360360408110156107aa57600080fd5b8101908080359060200190929190803560ff169060200190929190505050611444565b005b6060600360003373ffffffffffffffffffffffffffffffffffffffff1673ffffffffffffffffffffffffffffffffffffffff16815260200190815260200160002060000180548060200260200160405190810160405280929190818152602001828054801561085d57602002820191906000526020600020905b815481526020019060010190808311610849575b5050505050905090565b600080600083815260200190815260200160002060050160019054906101000a900473ffffffffffffffffffffffffffffffffffffffff169050919050565b60003373ffffffffffffffffffffffffffffffffffffffff166002876040518082805190602001908083835b602083106108f557805182526020820191506020810190506020830392506108d2565b6001836020036101000a038019825116818451168082178552505050505050905001915050908152602001604051809103902060009054906101000a900473ffffffffffffffffffffffffffffffffffffffff1673ffffffffffffffffffffffffffffffffffffffff1614806109b857503373ffffffffffffffffffffffffffffffffffffffff16600160009054906101000a900473ffffffffffffffffffffffffffffffffffffffff1673ffffffffffffffffffffffffffffffffffffffff16145b6109c157600080fd5b8660008084815260200190815260200160002060000190805190602001906109ea92919061179e565b50856000808481526020019081526020016000206001019080519060200190610a1492919061179e565b5084600080848152602001908152602001600020600201819055508360008084815260200190815260200160002060030160006101000a81548173ffffffffffffffffffffffffffffffffffffffff021916908373ffffffffffffffffffffffffffffffffffffffff1602179055508260008084815260200190815260200160002060040181905550600360008573ffffffffffffffffffffffffffffffffffffffff1673ffffffffffffffffffffffffffffffffffffffff168152602001908152602001600020600001829080600181540180825580915050906001820390600052602060002001600090919290919091505550600190509695505050505050565b60008082815260200190815260200160002060050160009054906101000a900460ff16610b4357600080fd5b3360008083815260200190815260200160002060050160016101000a81548173ffffffffffffffffffffffffffffffffffffffff021916908373ffffffffffffffffffffffffffffffffffffffff160217905550600080600083815260200190815260200160002060050160006101000a81548160ff021916908315150217905550600160008083815260200190815260200160002060050160156101000a81548160ff02191690836003811115610bf757fe5b021790555050565b600380811115610c0b57fe5b60008083815260200190815260200160002060050160159054906101000a900460ff166003811115610c3957fe5b14610c4357600080fd5b600a6000808381526020019081526020016000206004015481610c6257fe5b046000808381526020019081526020016000206004015401341015610c8657600080fd5b60008082815260200190815260200160002060030160009054906101000a900473ffffffffffffffffffffffffffffffffffffffff1673ffffffffffffffffffffffffffffffffffffffff166108fc600080848152602001908152602001600020600401549081150290604051600060405180830381858888f19350505050158015610d16573d6000803e3d6000fd5b50610d5660008083815260200190815260200160002060030160009054906101000a900473ffffffffffffffffffffffffffffffffffffffff1682611597565b3360008083815260200190815260200160002060030160006101000a81548173ffffffffffffffffffffffffffffffffffffffff021916908373ffffffffffffffffffffffffffffffffffffffff160217905550600080600083815260200190815260200160002060050160006101000a81548160ff021916908315150217905550600080600083815260200190815260200160002060050160016101000a81548173ffffffffffffffffffffffffffffffffffffffff021916908373ffffffffffffffffffffffffffffffffffffffff160217905550600080600083815260200190815260200160002060050160156101000a81548160ff02191690836003811115610e5f57fe5b0217905550600360003373ffffffffffffffffffffffffffffffffffffffff1673ffffffffffffffffffffffffffffffffffffffff16815260200190815260200160002060000181908060018154018082558091505090600182039060005260206000200160009091929091909150555050565b6060806000806000806000808881526020019081526020016000206000016000808981526020019081526020016000206001016000808a8152602001908152602001600020600201546000808b815260200190815260200160002060050160009054906101000a900460ff166000808c815260200190815260200160002060050160019054906101000a900473ffffffffffffffffffffffffffffffffffffffff166000808d815260200190815260200160002060050160159054906101000a900460ff16858054600181600116156101000203166002900480601f01602080910402602001604051908101604052809291908181526020018280546001816001161561010002031660029004801561102d5780601f106110025761010080835404028352916020019161102d565b820191906000526020600020905b81548152906001019060200180831161101057829003601f168201915b50505050509550848054600181600116156101000203166002900480601f0160208091040260200160405190810160405280929190818152602001828054600181600116156101000203166002900480156110c95780601f1061109e576101008083540402835291602001916110c9565b820191906000526020600020905b8154815290600101906020018083116110ac57829003601f168201915b5050505050945095509550955095509550955091939550919395565b600080600090505b600360008473ffffffffffffffffffffffffffffffffffffffff1673ffffffffffffffffffffffffffffffffffffffff168152602001908152602001600020600001805490508110156111af5783600360008573ffffffffffffffffffffffffffffffffffffffff1673ffffffffffffffffffffffffffffffffffffffff168152602001908152602001600020600001828154811061118857fe5b906000526020600020015414156111a257809150506111b4565b80806001019150506110ed565b809150505b92915050565b600080600080600080600087815260200190815260200160002060030160009054906101000a900473ffffffffffffffffffffffffffffffffffffffff166000808881526020019081526020016000206004015460008089815260200190815260200160002060050160009054906101000a900460ff166000808a815260200190815260200160002060050160019054906101000a900473ffffffffffffffffffffffffffffffffffffffff166000808b815260200190815260200160002060050160159054906101000a900460ff168494509450945094509450945091939590929450565b3373ffffffffffffffffffffffffffffffffffffffff1660008083815260200190815260200160002060030160009054906101000a900473ffffffffffffffffffffffffffffffffffffffff1673ffffffffffffffffffffffffffffffffffffffff161461130d57600080fd5b600160008083815260200190815260200160002060050160006101000a81548160ff02191690831515021790555050565b600160009054906101000a900473ffffffffffffffffffffffffffffffffffffffff1673ffffffffffffffffffffffffffffffffffffffff163373ffffffffffffffffffffffffffffffffffffffff161461139857600080fd5b816002826040518082805190602001908083835b602083106113cf57805182526020820191506020810190506020830392506113ac565b6001836020036101000a038019825116818451168082178552505050505050905001915050908152602001604051809103902060006101000a81548173ffffffffffffffffffffffffffffffffffffffff021916908373ffffffffffffffffffffffffffffffffffffffff1602179055505050565b3373ffffffffffffffffffffffffffffffffffffffff1660008084815260200190815260200160002060030160009054906101000a900473ffffffffffffffffffffffffffffffffffffffff1673ffffffffffffffffffffffffffffffffffffffff16146114b157600080fd5b8060008084815260200190815260200160002060050160156101000a81548160ff021916908360038111156114e257fe5b0217905550600260038111156114f457fe5b81600381111561150057fe5b141561159357600080600084815260200190815260200160002060050160016101000a81548173ffffffffffffffffffffffffffffffffffffffff021916908373ffffffffffffffffffffffffffffffffffffffff160217905550600080600084815260200190815260200160002060050160156101000a81548160ff0219169083600381111561158d57fe5b02179055505b5050565b60006115a382846110e5565b9050600360008473ffffffffffffffffffffffffffffffffffffffff1673ffffffffffffffffffffffffffffffffffffffff1681526020019081526020016000206000016001600360008673ffffffffffffffffffffffffffffffffffffffff1673ffffffffffffffffffffffffffffffffffffffff16815260200190815260200160002060000180549050038154811061163a57fe5b9060005260206000200154600360008573ffffffffffffffffffffffffffffffffffffffff1673ffffffffffffffffffffffffffffffffffffffff168152602001908152602001600020600001828154811061169257fe5b9060005260206000200181905550600360008473ffffffffffffffffffffffffffffffffffffffff1673ffffffffffffffffffffffffffffffffffffffff1681526020019081526020016000206000016001600360008673ffffffffffffffffffffffffffffffffffffffff1673ffffffffffffffffffffffffffffffffffffffff16815260200190815260200160002060000180549050038154811061173557fe5b9060005260206000200160009055600360008473ffffffffffffffffffffffffffffffffffffffff1673ffffffffffffffffffffffffffffffffffffffff168152602001908152602001600020600001805480919060019003611798919061181e565b50505050565b828054600181600116156101000203166002900490600052602060002090601f016020900481019282601f106117df57805160ff191683800117855561180d565b8280016001018555821561180d579182015b8281111561180c5782518255916020019190600101906117f1565b5b50905061181a919061184a565b5090565b81548183558181111561184557818360005260206000209182019101611844919061184a565b5b505050565b61186c91905b80821115611868576000816000905550600101611850565b5090565b9056fea265627a7a7231582059ba8cfc8c63e73ef59976cca6eb1ef2a98719427b971611ddae5ee41503408764736f6c63430005100032",
  "source": "pragma solidity >=0.4.0 <0.6.0;\r\n\r\ncontract landRegistration{\r\n    struct landDetails{\r\n        string landAddress;\r\n        string province;\r\n        uint256 surveyNumber;\r\n        address payable CurrentOwner;\r\n        uint marketValue;\r\n        bool isAvailable;\r\n        address requester;\r\n        reqStatus requestStatus;\r\n\r\n    }\r\n    enum reqStatus {Default,pending,rejected,approved}\r\n\r\n    struct ownerAssets{\r\n        uint[] listOfAssets;\r\n        }\r\n\r\n\r\n    mapping(uint => landDetails) land;\r\n    address owner;\r\n    mapping(string => address) admin;\r\n    mapping(address => ownerAssets) ownersAssets;\r\n\r\n    constructor() public{\r\n        owner = msg.sender;\r\n    }\r\n    modifier onlyOwner {\r\n        require(msg.sender == owner);\r\n        _;\r\n    }\r\n\r\n    //adding province admins\r\n    function addAdmin(address _admin,string memory _province ) onlyOwner public {\r\n        admin[_province]=_admin;\r\n    }\r\n\r\n    function Registration(string memory _landAddress,\r\n        string memory _province,uint256 _surveyNumber,\r\n        address payable _OwnerAddress,uint _marketValue,uint id\r\n        ) public returns(bool) {\r\n        require(admin[_province] == msg.sender || owner == msg.sender);\r\n        land[id].landAddress = _landAddress;\r\n        land[id].province = _province;\r\n        land[id].surveyNumber = _surveyNumber;\r\n        land[id].CurrentOwner = _OwnerAddress;\r\n        land[id].marketValue = _marketValue;\r\n        ownersAssets[_OwnerAddress].listOfAssets.push(id);\r\n        return true;\r\n    }\r\n\r\n\r\n    function landInfoForOwner(uint id) public view returns(string memory,string memory,uint256,bool,address,reqStatus){\r\n        return(land[id].landAddress,land[id].province,land[id].surveyNumber,land[id].isAvailable,land[id].requester,land[id].requestStatus);\r\n    }\r\n\r\n        function landInfoForBuyer(uint id) public view returns(address,uint,bool,address,reqStatus){\r\n        return(land[id].CurrentOwner,land[id].marketValue,land[id].isAvailable,land[id].requester,land[id].requestStatus);\r\n    }\r\n\r\n\r\n    function requstToLandOwner(uint id) public {\r\n        require(land[id].isAvailable);\r\n        land[id].requester=msg.sender;\r\n        land[id].isAvailable=false;\r\n        land[id].requestStatus = reqStatus.pending; //changes the status to pending.\r\n    }\r\n\r\n    function viewAssets()public view returns(uint[] memory){\r\n        return (ownersAssets[msg.sender].listOfAssets);\r\n    }\r\n\r\n\r\n    function viewRequest(uint property)public view returns(address){\r\n        return(land[property].requester);\r\n    }\r\n\r\n\r\n    function processRequest(uint property,reqStatus status)public {\r\n        require(land[property].CurrentOwner == msg.sender);\r\n        land[property].requestStatus=status;\r\n        if(status == reqStatus.rejected){\r\n            land[property].requester = address(0);\r\n            land[property].requestStatus = reqStatus.Default;\r\n        }\r\n    }\r\n\r\n    function makeAvailable(uint property)public{\r\n        require(land[property].CurrentOwner == msg.sender);\r\n        land[property].isAvailable=true;\r\n    }\r\n\r\n    function buyProperty(uint property)public payable{\r\n        require(land[property].requestStatus == reqStatus.approved);\r\n        require(msg.value >= (land[property].marketValue+((land[property].marketValue)/10)));\r\n        land[property].CurrentOwner.transfer(land[property].marketValue);\r\n        removeOwnership(land[property].CurrentOwner,property);\r\n        land[property].CurrentOwner=msg.sender;\r\n        land[property].isAvailable=false;\r\n        land[property].requester = address(0);\r\n        land[property].requestStatus = reqStatus.Default;\r\n        ownersAssets[msg.sender].listOfAssets.push(property); //adds the property to the asset list of the new owner.\r\n\r\n    }\r\n        function removeOwnership(address previousOwner,uint id)private{\r\n        uint index = findId(id,previousOwner);\r\n        ownersAssets[previousOwner].listOfAssets[index]=ownersAssets[previousOwner].listOfAssets[ownersAssets[previousOwner].listOfAssets.length-1];\r\n        delete ownersAssets[previousOwner].listOfAssets[ownersAssets[previousOwner].listOfAssets.length-1];\r\n        ownersAssets[previousOwner].listOfAssets.length--;\r\n    }\r\n\r\n    function findId(uint id,address user)public view returns(uint){\r\n        uint i;\r\n        for(i=0;i<ownersAssets[user].listOfAssets.length;i++){\r\n            if(ownersAssets[user].listOfAssets[i] == id)\r\n                return i;\r\n        }\r\n        return i;\r\n    }\r\n}\r\n",
  "sourcePath": "C:/Users/moham/Desktop/Land ownership/contracts/landOwnership.sol",
  "compiler": {
    "name": "solc",
    "version": "0.5.16+commit.9c3226ce.Emscripten.clang"
  },
  "schemaVersion": "3.2.2",
  "updatedAt": "2020-08-24T22:13:33.001Z",
  "devdoc": {
    "methods": {}
  },
  "userdoc": {
    "methods": {}
  }
}