{
  "contractName": "landOwnership",
  "abi": [
    {
      "inputs": [],
      "payable": false,
      "stateMutability": "nonpayable",
      "type": "constructor"
    },
    {
      "constant": false,
      "inputs": [
        {
          "internalType": "address",
          "name": "_admin",
          "type": "address"
        },
        {
          "internalType": "string",
          "name": "_province",
          "type": "string"
        }
      ],
      "name": "addAdmin",
      "outputs": [],
      "payable": false,
      "stateMutability": "nonpayable",
      "type": "function"
    },
    {
      "constant": false,
      "inputs": [
        {
          "internalType": "string",
          "name": "_landAddress",
          "type": "string"
        },
        {
          "internalType": "string",
          "name": "_province",
          "type": "string"
        },
        {
          "internalType": "uint256",
          "name": "_surveyNumber",
          "type": "uint256"
        },
        {
          "internalType": "address payable",
          "name": "_OwnerAddress",
          "type": "address"
        },
        {
          "internalType": "uint256",
          "name": "_marketValue",
          "type": "uint256"
        },
        {
          "internalType": "uint256",
          "name": "id",
          "type": "uint256"
        }
      ],
      "name": "Registration",
      "outputs": [
        {
          "internalType": "bool",
          "name": "",
          "type": "bool"
        }
      ],
      "payable": false,
      "stateMutability": "nonpayable",
      "type": "function"
    },
    {
      "constant": true,
      "inputs": [
        {
          "internalType": "string",
          "name": "_landAddress",
          "type": "string"
        },
        {
          "internalType": "string",
          "name": "_province",
          "type": "string"
        },
        {
          "internalType": "uint256",
          "name": "_surveyNumber",
          "type": "uint256"
        }
      ],
      "name": "computeId",
      "outputs": [
        {
          "internalType": "uint256",
          "name": "",
          "type": "uint256"
        }
      ],
      "payable": false,
      "stateMutability": "view",
      "type": "function"
    },
    {
      "constant": true,
      "inputs": [
        {
          "internalType": "uint256",
          "name": "id",
          "type": "uint256"
        }
      ],
      "name": "landInfoForOwner",
      "outputs": [
        {
          "internalType": "string",
          "name": "",
          "type": "string"
        },
        {
          "internalType": "string",
          "name": "",
          "type": "string"
        },
        {
          "internalType": "uint256",
          "name": "",
          "type": "uint256"
        },
        {
          "internalType": "bool",
          "name": "",
          "type": "bool"
        },
        {
          "internalType": "address",
          "name": "",
          "type": "address"
        },
        {
          "internalType": "enum landOwnership.reqStatus",
          "name": "",
          "type": "uint8"
        }
      ],
      "payable": false,
      "stateMutability": "view",
      "type": "function"
    },
    {
      "constant": true,
      "inputs": [
        {
          "internalType": "uint256",
          "name": "id",
          "type": "uint256"
        }
      ],
      "name": "landInfoForBuyer",
      "outputs": [
        {
          "internalType": "address",
          "name": "",
          "type": "address"
        },
        {
          "internalType": "uint256",
          "name": "",
          "type": "uint256"
        },
        {
          "internalType": "bool",
          "name": "",
          "type": "bool"
        },
        {
          "internalType": "address",
          "name": "",
          "type": "address"
        },
        {
          "internalType": "enum landOwnership.reqStatus",
          "name": "",
          "type": "uint8"
        }
      ],
      "payable": false,
      "stateMutability": "view",
      "type": "function"
    },
    {
      "constant": false,
      "inputs": [
        {
          "internalType": "uint256",
          "name": "id",
          "type": "uint256"
        }
      ],
      "name": "requstToLandOwner",
      "outputs": [],
      "payable": false,
      "stateMutability": "nonpayable",
      "type": "function"
    },
    {
      "constant": true,
      "inputs": [],
      "name": "viewAssets",
      "outputs": [
        {
          "internalType": "uint256[]",
          "name": "",
          "type": "uint256[]"
        }
      ],
      "payable": false,
      "stateMutability": "view",
      "type": "function"
    },
    {
      "constant": true,
      "inputs": [
        {
          "internalType": "uint256",
          "name": "property",
          "type": "uint256"
        }
      ],
      "name": "viewRequest",
      "outputs": [
        {
          "internalType": "address",
          "name": "",
          "type": "address"
        }
      ],
      "payable": false,
      "stateMutability": "view",
      "type": "function"
    },
    {
      "constant": false,
      "inputs": [
        {
          "internalType": "uint256",
          "name": "property",
          "type": "uint256"
        },
        {
          "internalType": "enum landOwnership.reqStatus",
          "name": "status",
          "type": "uint8"
        }
      ],
      "name": "processRequest",
      "outputs": [],
      "payable": false,
      "stateMutability": "nonpayable",
      "type": "function"
    },
    {
      "constant": false,
      "inputs": [
        {
          "internalType": "uint256",
          "name": "property",
          "type": "uint256"
        }
      ],
      "name": "makeAvailable",
      "outputs": [],
      "payable": false,
      "stateMutability": "nonpayable",
      "type": "function"
    },
    {
      "constant": false,
      "inputs": [
        {
          "internalType": "uint256",
          "name": "property",
          "type": "uint256"
        }
      ],
      "name": "buyProperty",
      "outputs": [],
      "payable": true,
      "stateMutability": "payable",
      "type": "function"
    },
    {
      "constant": true,
      "inputs": [
        {
          "internalType": "uint256",
          "name": "id",
          "type": "uint256"
        },
        {
          "internalType": "address",
          "name": "user",
          "type": "address"
        }
      ],
      "name": "findId",
      "outputs": [
        {
          "internalType": "uint256",
          "name": "",
          "type": "uint256"
        }
      ],
      "payable": false,
      "stateMutability": "view",
      "type": "function"
    }
  ],
  "bytecode": "0x608060405234801561001057600080fd5b5033600160006101000a81548173ffffffffffffffffffffffffffffffffffffffff021916908373ffffffffffffffffffffffffffffffffffffffff160217905550611b16806100616000396000f3fe6080604052600436106100a75760003560e01c80639f2cc207116100645780639f2cc2071461052e578063a27664ee146106a8578063a48407c114610717578063baa39e05146107ec578063d16856ca14610827578063fdb10f501461090f576100a7565b80630d2d5dca146100ac5780630f88c1c21461011857806326e85250146102955780636ba09bf7146103105780636c5ed939146104c55780636fa830a614610500575b600080fd5b3480156100b857600080fd5b506100c1610957565b6040518080602001828103825283818151815260200191508051906020019060200280838360005b838110156101045780820151818401526020810190506100e9565b505050509050019250505060405180910390f35b34801561012457600080fd5b5061027f6004803603606081101561013b57600080fd5b810190808035906020019064010000000081111561015857600080fd5b82018360208201111561016a57600080fd5b8035906020019184600183028401116401000000008311171561018c57600080fd5b91908080601f016020809104026020016040519081016040528093929190818152602001838380828437600081840152601f19601f820116905080830192505050505050509192919290803590602001906401000000008111156101ef57600080fd5b82018360208201111561020157600080fd5b8035906020019184600183028401116401000000008311171561022357600080fd5b91908080601f016020809104026020016040519081016040528093929190818152602001838380828437600081840152601f19601f820116905080830192505050505050509192919290803590602001909291905050506109ef565b6040518082815260200191505060405180910390f35b3480156102a157600080fd5b506102ce600480360360208110156102b857600080fd5b8101908080359060200190929190505050610ad9565b604051808273ffffffffffffffffffffffffffffffffffffffff1673ffffffffffffffffffffffffffffffffffffffff16815260200191505060405180910390f35b34801561031c57600080fd5b506104ab600480360360c081101561033357600080fd5b810190808035906020019064010000000081111561035057600080fd5b82018360208201111561036257600080fd5b8035906020019184600183028401116401000000008311171561038457600080fd5b91908080601f016020809104026020016040519081016040528093929190818152602001838380828437600081840152601f19601f820116905080830192505050505050509192919290803590602001906401000000008111156103e757600080fd5b8201836020820111156103f957600080fd5b8035906020019184600183028401116401000000008311171561041b57600080fd5b91908080601f016020809104026020016040519081016040528093929190818152602001838380828437600081840152601f19601f82011690508083019250505050505050919291929080359060200190929190803573ffffffffffffffffffffffffffffffffffffffff1690602001909291908035906020019092919080359060200190929190505050610b18565b604051808215151515815260200191505060405180910390f35b3480156104d157600080fd5b506104fe600480360360208110156104e857600080fd5b8101908080359060200190929190505050610d89565b005b61052c6004803603602081101561051657600080fd5b8101908080359060200190929190505050610e71565b005b34801561053a57600080fd5b506105676004803603602081101561055157600080fd5b8101908080359060200190929190505050611145565b604051808060200180602001878152602001861515151581526020018573ffffffffffffffffffffffffffffffffffffffff1673ffffffffffffffffffffffffffffffffffffffff1681526020018460038111156105c157fe5b60ff168152602001838103835289818151815260200191508051906020019080838360005b838110156106015780820151818401526020810190506105e6565b50505050905090810190601f16801561062e5780820380516001836020036101000a031916815260200191505b50838103825288818151815260200191508051906020019080838360005b8381101561066757808201518184015260208101905061064c565b50505050905090810190601f1680156106945780820380516001836020036101000a031916815260200191505b509850505050505050505060405180910390f35b3480156106b457600080fd5b50610701600480360360408110156106cb57600080fd5b8101908080359060200190929190803573ffffffffffffffffffffffffffffffffffffffff169060200190929190505050611357565b6040518082815260200191505060405180910390f35b34801561072357600080fd5b506107506004803603602081101561073a57600080fd5b810190808035906020019092919050505061142c565b604051808673ffffffffffffffffffffffffffffffffffffffff1673ffffffffffffffffffffffffffffffffffffffff168152602001858152602001841515151581526020018373ffffffffffffffffffffffffffffffffffffffff1673ffffffffffffffffffffffffffffffffffffffff1681526020018260038111156107d457fe5b60ff1681526020019550505050505060405180910390f35b3480156107f857600080fd5b506108256004803603602081101561080f57600080fd5b8101908080359060200190929190505050611512565b005b34801561083357600080fd5b5061090d6004803603604081101561084a57600080fd5b81019080803573ffffffffffffffffffffffffffffffffffffffff1690602001909291908035906020019064010000000081111561088757600080fd5b82018360208201111561089957600080fd5b803590602001918460018302840111640100000000831117156108bb57600080fd5b91908080601f016020809104026020016040519081016040528093929190818152602001838380828437600081840152601f19601f8201169050808301925050505050505091929192905050506115b0565b005b34801561091b57600080fd5b506109556004803603604081101561093257600080fd5b8101908080359060200190929190803560ff1690602001909291905050506116b6565b005b6060600360003373ffffffffffffffffffffffffffffffffffffffff1673ffffffffffffffffffffffffffffffffffffffff1681526020019081526020016000206000018054806020026020016040519081016040528092919081815260200182805480156109e557602002820191906000526020600020905b8154815260200190600101908083116109d1575b5050505050905090565b60006509184e72a0008484846040516020018084805190602001908083835b60208310610a315780518252602082019150602081019050602083039250610a0e565b6001836020036101000a03801982511681845116808217855250505050505090500183805190602001908083835b60208310610a825780518252602082019150602081019050602083039250610a5f565b6001836020036101000a03801982511681845116808217855250505050505090500182815260200193505050506040516020818303038152906040528051906020012060001c81610acf57fe5b0690509392505050565b600080600083815260200190815260200160002060050160019054906101000a900473ffffffffffffffffffffffffffffffffffffffff169050919050565b60003373ffffffffffffffffffffffffffffffffffffffff166002876040518082805190602001908083835b60208310610b675780518252602082019150602081019050602083039250610b44565b6001836020036101000a038019825116818451168082178552505050505050905001915050908152602001604051809103902060009054906101000a900473ffffffffffffffffffffffffffffffffffffffff1673ffffffffffffffffffffffffffffffffffffffff161480610c2a57503373ffffffffffffffffffffffffffffffffffffffff16600160009054906101000a900473ffffffffffffffffffffffffffffffffffffffff1673ffffffffffffffffffffffffffffffffffffffff16145b610c3357600080fd5b866000808481526020019081526020016000206000019080519060200190610c5c929190611a10565b50856000808481526020019081526020016000206001019080519060200190610c86929190611a10565b5084600080848152602001908152602001600020600201819055508360008084815260200190815260200160002060030160006101000a81548173ffffffffffffffffffffffffffffffffffffffff021916908373ffffffffffffffffffffffffffffffffffffffff1602179055508260008084815260200190815260200160002060040181905550600360008573ffffffffffffffffffffffffffffffffffffffff1673ffffffffffffffffffffffffffffffffffffffff168152602001908152602001600020600001829080600181540180825580915050906001820390600052602060002001600090919290919091505550600190509695505050505050565b60008082815260200190815260200160002060050160009054906101000a900460ff16610db557600080fd5b3360008083815260200190815260200160002060050160016101000a81548173ffffffffffffffffffffffffffffffffffffffff021916908373ffffffffffffffffffffffffffffffffffffffff160217905550600080600083815260200190815260200160002060050160006101000a81548160ff021916908315150217905550600160008083815260200190815260200160002060050160156101000a81548160ff02191690836003811115610e6957fe5b021790555050565b600380811115610e7d57fe5b60008083815260200190815260200160002060050160159054906101000a900460ff166003811115610eab57fe5b14610eb557600080fd5b600a6000808381526020019081526020016000206004015481610ed457fe5b046000808381526020019081526020016000206004015401341015610ef857600080fd5b60008082815260200190815260200160002060030160009054906101000a900473ffffffffffffffffffffffffffffffffffffffff1673ffffffffffffffffffffffffffffffffffffffff166108fc600080848152602001908152602001600020600401549081150290604051600060405180830381858888f19350505050158015610f88573d6000803e3d6000fd5b50610fc860008083815260200190815260200160002060030160009054906101000a900473ffffffffffffffffffffffffffffffffffffffff1682611809565b3360008083815260200190815260200160002060030160006101000a81548173ffffffffffffffffffffffffffffffffffffffff021916908373ffffffffffffffffffffffffffffffffffffffff160217905550600080600083815260200190815260200160002060050160006101000a81548160ff021916908315150217905550600080600083815260200190815260200160002060050160016101000a81548173ffffffffffffffffffffffffffffffffffffffff021916908373ffffffffffffffffffffffffffffffffffffffff160217905550600080600083815260200190815260200160002060050160156101000a81548160ff021916908360038111156110d157fe5b0217905550600360003373ffffffffffffffffffffffffffffffffffffffff1673ffffffffffffffffffffffffffffffffffffffff16815260200190815260200160002060000181908060018154018082558091505090600182039060005260206000200160009091929091909150555050565b6060806000806000806000808881526020019081526020016000206000016000808981526020019081526020016000206001016000808a8152602001908152602001600020600201546000808b815260200190815260200160002060050160009054906101000a900460ff166000808c815260200190815260200160002060050160019054906101000a900473ffffffffffffffffffffffffffffffffffffffff166000808d815260200190815260200160002060050160159054906101000a900460ff16858054600181600116156101000203166002900480601f01602080910402602001604051908101604052809291908181526020018280546001816001161561010002031660029004801561129f5780601f106112745761010080835404028352916020019161129f565b820191906000526020600020905b81548152906001019060200180831161128257829003601f168201915b50505050509550848054600181600116156101000203166002900480601f01602080910402602001604051908101604052809291908181526020018280546001816001161561010002031660029004801561133b5780601f106113105761010080835404028352916020019161133b565b820191906000526020600020905b81548152906001019060200180831161131e57829003601f168201915b5050505050945095509550955095509550955091939550919395565b600080600090505b600360008473ffffffffffffffffffffffffffffffffffffffff1673ffffffffffffffffffffffffffffffffffffffff168152602001908152602001600020600001805490508110156114215783600360008573ffffffffffffffffffffffffffffffffffffffff1673ffffffffffffffffffffffffffffffffffffffff16815260200190815260200160002060000182815481106113fa57fe5b906000526020600020015414156114145780915050611426565b808060010191505061135f565b809150505b92915050565b600080600080600080600087815260200190815260200160002060030160009054906101000a900473ffffffffffffffffffffffffffffffffffffffff166000808881526020019081526020016000206004015460008089815260200190815260200160002060050160009054906101000a900460ff166000808a815260200190815260200160002060050160019054906101000a900473ffffffffffffffffffffffffffffffffffffffff166000808b815260200190815260200160002060050160159054906101000a900460ff168494509450945094509450945091939590929450565b3373ffffffffffffffffffffffffffffffffffffffff1660008083815260200190815260200160002060030160009054906101000a900473ffffffffffffffffffffffffffffffffffffffff1673ffffffffffffffffffffffffffffffffffffffff161461157f57600080fd5b600160008083815260200190815260200160002060050160006101000a81548160ff02191690831515021790555050565b600160009054906101000a900473ffffffffffffffffffffffffffffffffffffffff1673ffffffffffffffffffffffffffffffffffffffff163373ffffffffffffffffffffffffffffffffffffffff161461160a57600080fd5b816002826040518082805190602001908083835b60208310611641578051825260208201915060208101905060208303925061161e565b6001836020036101000a038019825116818451168082178552505050505050905001915050908152602001604051809103902060006101000a81548173ffffffffffffffffffffffffffffffffffffffff021916908373ffffffffffffffffffffffffffffffffffffffff1602179055505050565b3373ffffffffffffffffffffffffffffffffffffffff1660008084815260200190815260200160002060030160009054906101000a900473ffffffffffffffffffffffffffffffffffffffff1673ffffffffffffffffffffffffffffffffffffffff161461172357600080fd5b8060008084815260200190815260200160002060050160156101000a81548160ff0219169083600381111561175457fe5b02179055506002600381111561176657fe5b81600381111561177257fe5b141561180557600080600084815260200190815260200160002060050160016101000a81548173ffffffffffffffffffffffffffffffffffffffff021916908373ffffffffffffffffffffffffffffffffffffffff160217905550600080600084815260200190815260200160002060050160156101000a81548160ff021916908360038111156117ff57fe5b02179055505b5050565b60006118158284611357565b9050600360008473ffffffffffffffffffffffffffffffffffffffff1673ffffffffffffffffffffffffffffffffffffffff1681526020019081526020016000206000016001600360008673ffffffffffffffffffffffffffffffffffffffff1673ffffffffffffffffffffffffffffffffffffffff1681526020019081526020016000206000018054905003815481106118ac57fe5b9060005260206000200154600360008573ffffffffffffffffffffffffffffffffffffffff1673ffffffffffffffffffffffffffffffffffffffff168152602001908152602001600020600001828154811061190457fe5b9060005260206000200181905550600360008473ffffffffffffffffffffffffffffffffffffffff1673ffffffffffffffffffffffffffffffffffffffff1681526020019081526020016000206000016001600360008673ffffffffffffffffffffffffffffffffffffffff1673ffffffffffffffffffffffffffffffffffffffff1681526020019081526020016000206000018054905003815481106119a757fe5b9060005260206000200160009055600360008473ffffffffffffffffffffffffffffffffffffffff1673ffffffffffffffffffffffffffffffffffffffff168152602001908152602001600020600001805480919060019003611a0a9190611a90565b50505050565b828054600181600116156101000203166002900490600052602060002090601f016020900481019282601f10611a5157805160ff1916838001178555611a7f565b82800160010185558215611a7f579182015b82811115611a7e578251825591602001919060010190611a63565b5b509050611a8c9190611abc565b5090565b815481835581811115611ab757818360005260206000209182019101611ab69190611abc565b5b505050565b611ade91905b80821115611ada576000816000905550600101611ac2565b5090565b9056fea265627a7a723158202088091d65087a786da868c1a733b6923a48464e5d9290d7f15fed23962daf7664736f6c63430005100032",
  "source": "pragma solidity >=0.4.0 <0.6.0;\n\ncontract landOwnership {\n    struct landDetails {\n        string landAddress;\n        string province;\n        uint256 surveyNumber;\n        address payable CurrentOwner;\n        uint256 marketValue;\n        bool isAvailable;\n        address requester;\n        reqStatus requestStatus;\n    }\n    enum reqStatus {Default, pending, rejected, approved}\n\n    struct ownerAssets {\n        uint256[] listOfAssets;\n    }\n\n    mapping(uint256 => landDetails) land;\n    address owner;\n    mapping(string => address) admin;\n    mapping(address => ownerAssets) ownersAssets;\n\n    constructor() public {\n        owner = msg.sender;\n    }\n\n    modifier onlyOwner {\n        require(msg.sender == owner);\n        _;\n    }\n\n    //adding province admins\n    function addAdmin(address _admin, string memory _province)\n        public\n        onlyOwner\n    {\n        admin[_province] = _admin;\n    }\n\n    function Registration(\n        string memory _landAddress,\n        string memory _province,\n        uint256 _surveyNumber,\n        address payable _OwnerAddress,\n        uint256 _marketValue,\n        uint256 id\n    ) public returns (bool) {\n        require(admin[_province] == msg.sender || owner == msg.sender);\n        land[id].landAddress = _landAddress;\n        land[id].province = _province;\n        land[id].surveyNumber = _surveyNumber;\n        land[id].CurrentOwner = _OwnerAddress;\n        land[id].marketValue = _marketValue;\n        ownersAssets[_OwnerAddress].listOfAssets.push(id);\n        return true;\n    }\n\n    function computeId(\n        string memory _landAddress,\n        string memory _province,\n        uint256 _surveyNumber\n    ) public view returns (uint256) {\n        return\n            uint256(\n                keccak256(\n                    abi.encodePacked(_landAddress, _province, _surveyNumber)\n                )\n            ) % 10000000000000;\n    }\n\n    function landInfoForOwner(uint256 id)\n        public\n        view\n        returns (\n            string memory,\n            string memory,\n            uint256,\n            bool,\n            address,\n            reqStatus\n        )\n    {\n        return (\n            land[id].landAddress,\n            land[id].province,\n            land[id].surveyNumber,\n            land[id].isAvailable,\n            land[id].requester,\n            land[id].requestStatus\n        );\n    }\n\n    function landInfoForBuyer(uint256 id)\n        public\n        view\n        returns (\n            address,\n            uint256,\n            bool,\n            address,\n            reqStatus\n        )\n    {\n        return (\n            land[id].CurrentOwner,\n            land[id].marketValue,\n            land[id].isAvailable,\n            land[id].requester,\n            land[id].requestStatus\n        );\n    }\n\n    function requstToLandOwner(uint256 id) public {\n        require(land[id].isAvailable);\n        land[id].requester = msg.sender;\n        land[id].isAvailable = false;\n        land[id].requestStatus = reqStatus.pending; //changes the status to pending.\n    }\n\n    function viewAssets() public view returns (uint256[] memory) {\n        return (ownersAssets[msg.sender].listOfAssets);\n    }\n\n    function viewRequest(uint256 property) public view returns (address) {\n        return (land[property].requester);\n    }\n\n    function processRequest(uint256 property, reqStatus status) public {\n        require(land[property].CurrentOwner == msg.sender);\n        land[property].requestStatus = status;\n        if (status == reqStatus.rejected) {\n            land[property].requester = address(0);\n            land[property].requestStatus = reqStatus.Default;\n        }\n    }\n\n    function makeAvailable(uint256 property) public {\n        require(land[property].CurrentOwner == msg.sender);\n        land[property].isAvailable = true;\n    }\n\n    function buyProperty(uint256 property) public payable {\n        require(land[property].requestStatus == reqStatus.approved);\n        require(\n            msg.value >=\n                (land[property].marketValue +\n                    ((land[property].marketValue) / 10))\n        );\n        land[property].CurrentOwner.transfer(land[property].marketValue);\n        removeOwnership(land[property].CurrentOwner, property);\n        land[property].CurrentOwner = msg.sender;\n        land[property].isAvailable = false;\n        land[property].requester = address(0);\n        land[property].requestStatus = reqStatus.Default;\n        ownersAssets[msg.sender].listOfAssets.push(property); //adds the property to the asset list of the new owner.\n    }\n\n    function removeOwnership(address previousOwner, uint256 id) private {\n        uint256 index = findId(id, previousOwner);\n        ownersAssets[previousOwner]\n            .listOfAssets[index] = ownersAssets[previousOwner]\n            .listOfAssets[ownersAssets[previousOwner].listOfAssets.length - 1];\n        delete ownersAssets[previousOwner]\n            .listOfAssets[ownersAssets[previousOwner].listOfAssets.length - 1];\n        ownersAssets[previousOwner].listOfAssets.length--;\n    }\n\n    function findId(uint256 id, address user) public view returns (uint256) {\n        uint256 i;\n        for (i = 0; i < ownersAssets[user].listOfAssets.length; i++) {\n            if (ownersAssets[user].listOfAssets[i] == id) return i;\n        }\n        return i;\n    }\n}\n",
  "sourcePath": "D:/amrob/training summer2020/project/Land-Ownership-master/contracts/landOwnership.sol",
  "compiler": {
    "name": "solc",
    "version": "0.5.16+commit.9c3226ce.Emscripten.clang"
  },
  "schemaVersion": "3.2.3",
  "updatedAt": "2020-08-28T13:38:56.490Z",
  "networkType": "ethereum",
  "devdoc": {
    "methods": {}
  },
  "userdoc": {
    "methods": {}
  }
}